:020000040800F2
:10000000B008002045010008A50F0008A70F000850
:10001000AB0F0008AF0F0008B30F0008000000008E
:10002000000000000000000000000000B70F000802
:10003000B90F000800000000BB0F0008BD0F00084A
:100040005F0100085F0100085F0100085F01000810
:100050005F0100085F0100085F0100085F01000800
:100060005F0100085F0100085F0100085F010008F0
:100070005F0100085F0100085F0100085F010008E0
:100080005F0100085F0100085F0100085F010008D0
:100090005F0100085F0100085F0100085F010008C0
:1000A0005F0100085F0100085F0100085F010008B0
:1000B0005F0100085F0100085F0100085F010008A0
:1000C0005F0100085F0100085F0100085F01000890
:1000D0005F0100085F0100085F0100085F01000880
:1000E0005F0100085F0100085F0100085F01000870
:1000F0005F0100085F0100085F0100085F01000860
:100100005F0100085F0100085F0100085F0100084F
:100110005F0100085F0100085F0100085F0100083F
:100120005F0100085F0100085F0100085F0100082F
:10013000DFF80CD001F0C8F900480047290F00088B
:10014000B00800200648804706480047FEE7FEE763
:10015000FEE7FEE7FEE7FEE7FEE7FEE7FEE7FEE777
:1001600047020008310100080CB500200190009002
:100170006C48006840F480306A49086000BF6948F4
:10018000006800F4003000900198401C0190009835
:1001900018B90198B0F5A06FF1D16248006800F479
:1001A000003010B10120009001E000200090009884
:1001B000012843D15C48006840F010005A490860AB
:1001C0000846006820F0030008600846006840F018
:1001D0000200086053484068524948600846406839
:1001E00048600846406840F48060486008464068BF
:1001F00020F47C1048600846406840F4E8104860ED
:100200000846006840F08070086000BF45480068FC
:1002100000F000700028F9D04248406820F0030048
:10022000404948600846406840F00200486000BF0E
:100230003C48406800F00C000828F9D10CBD10B50E
:10024000FFF792FF10BD10B53648006840F001007E
:1002500034490860084640683449084031494860DC
:1002600008460068324908402E4908600846006880
:1002700020F4802008600846406820F4FE004860B2
:100280004FF41F008860FFF7DAFF4FF00060294944
:10029000086010BD10B5002100200022214B5B68D2
:1002A00003F00C0121B1042906D0082928D107E068
:1002B000214B224C236027E01F4B204C236023E07E
:1002C000184B5B6803F47010164B5B6803F48032C4
:1002D000022303EB904022B9194B4343174C236090
:1002E0000DE0104B5B6803F4003323B1144B434320
:1002F000124C236003E0104B4343104C236003E097
:100300000D4B0E4C236000BF00BF064B5B68C3F370
:1003100003130C4CE15C094B1B68CB40074C23607A
:1003200010BD000000100240002002400000FFF855
:10033000FFFFF6FE08ED00E000127A00000000204A
:1003400000093D000400002031490143314A116099
:10035000704770B5002100230F22C47804B32D4CE0
:10036000246804F4E064C4F5E064210AC1F10403E4
:10037000CA40447804FA03F1847814402143090107
:10038000254C0678A155047804F01F050124AC40E3
:1003900005786D11AD0005F1E025C5F8004109E0D3
:1003A000047804F01F050124AC401C4D067876113A
:1003B00045F8264070BD1A4A0A400243154B1B1FE0
:1003C0001A60704739B1134A121D12680243114B6B
:1003D0001B1D1A6006E00F4A121D126882430D4B66
:1003E0001B1D1A607047042808D14FF0E0210969ED
:1003F00041F004014FF0E022116107E04FF0E021ED
:10040000096921F004014FF0E022116170470000FA
:100410000000FA050CED00E000E400E080E100E0FF
:1004200080FFFF1F10B50446CC48844208D101214B
:10043000042000F02FFD0021042000F02BFD46E0F9
:10044000C748844208D10121082000F023FD002183
:10045000082000F01FFD3AE0C248844208D1012183
:10046000102000F017FD0021102000F013FD2EE0F9
:10047000BD48844208D10121202000F00BFD00215D
:10048000202000F007FD22E0B848844208D1012175
:10049000402000F0FFFC0021402000F0FBFC16E0B3
:1004A000B348844208D10121802000F0F3FC0021F0
:1004B000802000F0EFFC0AE0AE48844207D1012121
:1004C000801500F0E7FC0021A01500F0E3FC10BD52
:1004D00010B50121084600F0DDFC0021012000F0EC
:1004E000D9FC10BD2DE9F041024600250026002070
:1004F00000230024002791F803C00CF00F0591F8A9
:1005000003C00CF0100CBCF1000F03D091F802C036
:100510004CEA050591F800C0BCF1000F31D0146819
:1005200000202BE04FF0010C0CFA00F3B1F800C0F2
:100530000CEA03069E4220D183004FF00F0C0CFA08
:1005400003F7BC4305FA03FC4CEA040491F803C02A
:10055000BCF1280F06D14FF0010C0CFA00FCC2F8D8
:1005600014C00AE091F803C0BCF1480F05D14FF068
:10057000010C0CFA00FCC2F810C0401C0828D1D3B2
:100580001460B1F800C0BCF1FF0F34DD54680020E6
:100590002EE000F1080C4FF0010808FA0CF3B1F856
:1005A00000C00CEA03069E4221D183004FF00F0CDD
:1005B0000CFA03F7BC4305FA03FC4CEA040491F877
:1005C00003C0BCF1280F05D100F1080C08FA0CF8A3
:1005D000C2F8148091F803C0BCF1480F07D100F1B4
:1005E000080C4FF0010808FA0CF8C2F81080401C03
:1005F0000828CED35460BDE8F0814FF6FF7101802A
:10060000022181700421C170704702460020936866
:100610000B400BB1012000E00020704701468868C4
:1006200080B2704702460020D3680B400BB1012016
:1006300000E0002070470146C86880B27047016141
:100640007047416170470AB1016100E04161704744
:10065000C16070474FF480320A43826181618261D8
:1006600082698269704702460020434B18684FF642
:100670008073184040EA021008433F4B18607047EF
:100680003E49C8617047F0B50A46002300240021A6
:10069000002500F00046B6F1004F02D1364EF16958
:1006A00001E0354E7168C0F3034583B200F4401693
:1006B000B6F5401F08D121F070612F4E766826F004
:1006C00070662D4F7E6012E000F48016B6F5801F34
:1006D00006D1032606FA05F4A14341F0706106E055
:1006E000460D360103FA06F6B14341F0706122B1BE
:1006F000460D360103FA06F6314300F00046B6F126
:10070000004F02D11C4EF16101E01B4E7160F0BD43
:1007100030B500228B071C0F0F2303FA04F2164B8F
:1007200008338C1053F824309343134C08348D1045
:1007300044F8253023468C1053F824308C07240FBE
:1007400000FA04F423430C4C08348D1044F825308F
:1007500030BD0A49DC3108607047000000080140E4
:10076000000C01400010014000140140001801403D
:10077000001C014000200140000001400000204218
:1007800010B50446F748844209D10121480500F01C
:100790008EFB00214FF4001000F089FB08E00121DE
:1007A000880500F084FB00214FF4800000F07FFBFF
:1007B00010BD2DE9F04385B004460D460026B14634
:1007C0000427DFF8A483A6884FF6C0700640684669
:1007D00000F0D9FADDF80880E448B8FBF0F01FFA21
:1007E00080F946EA0906A68020884FF6FE71084087
:1007F00020800026DE49286888420CD828684000FE
:10080000B8FBF0F087B2042F00DA04273E4309F169
:100810000100208427E0E8884BF6FF71884206D16A
:10082000286800EB4000B8FBF0F087B209E02868C8
:1008300000EBC00101EB0010B8FBF0F087B247F409
:100840008047C7F30B0008B947F0010747F40040A1
:1008500006434FF4967009FB00F04FF47A7190FB59
:10086000F1F0401C2084A683208840F00100208005
:1008700026884FF6F5300640A88869890843064364
:100880002680A88929890843208105B0BDE8F08326
:1008900041F288310160002181804BF6FF71C180F7
:1008A0000021018141814FF480418181704721B154
:1008B000028842F00102028004E002884FF6FE73D3
:1008C0001A400280704721B1828842F4006282801F
:1008D00004E082884FF2FF731A408280704721B192
:1008E000828842F48052828004E082884EF6FF7350
:1008F0001A408280704721B1028842F480720280DF
:1009000004E002884FF6FF631A400280704721B16D
:10091000028842F40072028004E002884FF6FF531E
:100920001A400280704721B1028842F4806202803E
:1009300004E002884FF6FF331A40028070470A46EF
:10094000002181894FF60173194002F0FE0319431B
:100950008181704721B1828942F00102828104E0E5
:1009600082894FF6FE731A408281704721B1028856
:1009700042F04002028004E002884FF6BF731A4042
:10098000028070471AB183880B43838002E083881A
:100990008B4383807047018270470146088AC0B24A
:1009A000704712B141F0010102E04FF6FE731940A9
:1009B0000182704708B5024600200090009200981E
:1009C000084400900098008808BD21B1028842F4D4
:1009D0000042028003E00288C2F30E0202807047E8
:1009E000B1F5006F04D1028842F40062028004E095
:1009F00002884FF2FF731A4002807047B1F5005F22
:100A000004D1028842F40052028004E002884DF6CC
:100A1000FF731A400280704721B1028842F480526D
:100A2000028004E002884EF6FF731A40028070478D
:100A3000B1F5006F04D1028842F40062028004E044
:100A400002884FF2FF731A400280704721B102887A
:100A500042F02002028004E002884FF6DF731A4061
:100A6000028070470146088B0012704721B102884E
:100A700042F01002028004E002884FF6EF731A4041
:100A80000280704721B9028842F08002028004E0AF
:100A900002884FF67F731A4002807047B1F5804F8D
:100AA00005D0828B4BF6FF731A40828303E0828B62
:100AB00042F480428283704770B5024600240025CC
:100AC00000230020958A138B1B0445EA030626F0B9
:100AD0007F4404EA01068E4201D1012000E000209B
:100AE00070BD10B501460020002300228B8A0A8BBE
:100AF000120443EA020424F07F4010BD0CB5024604
:100B0000002000230193009300920B0F019321F02A
:100B10007F41019B1BB1009B1433009303E0090C40
:100B2000009B18330093009B1B680B400BB1012006
:100B300000E000200CBD002221F07F42D3438382DD
:100B4000704730B5024600200023948801F0E0652C
:100B500004EA154321F07F41948A0C4054B14BB113
:100B6000012008E00054004000127A0040420F00CB
:100B7000A0860100002030BD002221F07F42D34337
:100B800083827047DF48006840F00100DD4908605B
:100B900008464068DC490840DA4948600846006871
:100BA000DA490840D74908600846006820F48020E8
:100BB00008600846406820F4FE0048604FF41F00BB
:100BC00088607047CF49096821F48031CD4A1160AF
:100BD0001146096821F480211160B0F5803F03D0EF
:100BE000B0F5802F0ED106E0C649096841F4803186
:100BF000C44A116007E0C349096841F4A021C14A11
:100C0000116000E000BF00BF704710B50146002230
:100C1000002300204A11012A02D1BA4C236806E0C1
:100C2000022A02D1B74C236A01E0B64C636A01F094
:100C30001F02012494401C400CB1012000E0002060
:100C400010BD38B5002000900024002500BF3120E1
:100C5000FFF7DBFF05460098401C00900098B0F5B8
:100C6000A06F01D0002DF2D03120FFF7CEFF08B1E8
:100C7000012400E00024204638BD01460020A14A9E
:100C8000106820F0F80040EAC10010607047A049E9
:100C900008607047024600209A4B586820F47C1088
:100CA00042EA01031843974B586070479849086619
:100CB000704701460020934A506820F00300084323
:100CC000506070478F48406800F00C007047014644
:100CD00000208C4A506820F0F000084350607047B4
:100CE00001460020874A506820F4E06008435060C5
:100CF000704701460020834A506820F4605040EA63
:100D0000C1005060704729B17E4A527A02437D4B40
:100D10005A7204E07B4A527A82437A4B5A72704785
:100D20007B49D8310860704701460020754A5068F9
:100D300020F440400843506070470021714A20323F
:100D40001170704A82F82010012802D004280AD1BC
:100D500004E001216B4A2032117005E00521694A47
:100D60002032117000E000BF00BF70476949086081
:100D700070476449096A0143624A116270476549D4
:100D800044390860704730B5002100220024002358
:100D90005C4D6D6805F00C0121B1042905D00829CE
:100DA00023D105E05C4D056022E05B4D05601FE04E
:100DB000544D6D6805F47012524D6D6805F4803421
:100DC000022505EB92421CB9544D554305600BE0DA
:100DD0004C4D6D6805F400351DB1504D554305600F
:100DE00002E04D4D5543056002E04B4D056000BFEC
:100DF00000BF444D6D6805F0F0010909484D6B5C7A
:100E00000568DD4045603F4D6D6805F4E061090A05
:100E1000434D6B5C4568DD4085603A4D6D6805F477
:100E20006051C90A3E4D6B5C4568DD40C560354D7B
:100E30006D6805F44041890B3A4D6B5CC568B5FBA4
:100E4000F3F5056130BD29B12E4A526902432D4B9D
:100E50005A6104E02B4A526982432A4B5A61704717
:100E600029B1284A92690243264B9A6104E0254A37
:100E700092698243234B9A61704729B1214AD26912
:100E80000243204BDA6104E01E4AD26982431D4BC3
:100E9000DA61704729B11B4AD2680243194BDA6004
:100EA00004E0184AD2688243164BDA60704729B1D1
:100EB000144A12690243134B1A6104E0114A126981
:100EC0008243104B1A6170471249403908607047DD
:100ED0000F49C86470470B49C87170470948406A98
:100EE00040F0807007494862704701460020054A7B
:100EF00092680A400AB1012000E0002070470149D1
:100F000088727047001002400000FFF8FFFFF6FEF5
:100F1000000042428004424200127A0000093D0073
:100F2000140000202400002008B500F057FA00F05B
:100F300047F800F0C9F82BE0FF2000F032F902205A
:100F400000F0ADFA002000F02CF9022000F0A7FA22
:100F5000022000F0A4FA02230EA20421002000F0D7
:100F600058F9C82000F09BFA00F038F900F046F973
:100F7000022000F094FA00F036F909480823802294
:100F800000210090084600F0DEF9142000F087FAF6
:100F9000D2E70000676F6F64206A6F620000000094
:100FA000A8000020704700BFFEE700BFFEE700BFBB
:100FB000FEE700BFFEE770477047704770470000CC
:100FC00000B585B001214805FFF757FF0121082032
:100FD000FFF746FFC020ADF8000003208DF80200A7
:100FE0001C208DF803006946F448FFF77BFAF448AB
:100FF000FFF7C6FB0020ADF808004BF6FF70ADF818
:101000000A003020ADF80C004FF48060ADF80E00FF
:101010000001ADF81000EB4801900121E848FFF70E
:1010200046FC01A9E648FFF7C4FB05B000BD70B55A
:1010300004460D4600BF4FF40031E148FFF75EFD66
:101040000028F8D10121DE48FFF755FC00BFDE493A
:10105000DB48FFF731FD0028F9D000227821D8487D
:10106000FFF79FFC00BFD949D548FFF725FD0028B1
:10107000F9D02146D248FFF78EFC00BFD349891C26
:10108000CF48FFF719FD0028F8D02946CC48FFF7D4
:1010900082FC00BFCD49891CC948FFF70DFD00281F
:1010A000F8D00121C648FFF732FC70BD10B50446E8
:1010B00021460020FFF7BBFF10BD10B504462146B6
:1010C0004020FFF7B4FF10BD10B5642000F0C3F955
:1010D000AE20FFF7EBFF2020FFF7E8FF1020FFF71F
:1010E000E5FFB020FFF7E2FFC820FFF7DFFF002099
:1010F000FFF7DCFF1020FFF7D9FF4020FFF7D6FFF6
:101100008120FFF7D3FFFF20FFF7D0FFA120FFF7DB
:10111000CDFFA620FFF7CAFFA820FFF7C7FF3F209B
:10112000FFF7C4FFA420FFF7C1FFD320FFF7BEFFE6
:101130000020FFF7BBFFD520FFF7B8FFF020FFF737
:10114000B5FFD920FFF7B2FF2220FFF7AFFFDA206B
:10115000FFF7ACFF1220FFF7A9FFDB20FFF7A6FF88
:101160002020FFF7A3FF8D20FFF7A0FF1420FFF73B
:101170009DFFAF20FFF79AFF10BD70B504460D46E6
:1011800005F1B001C8B2FFF791FF102141EA141038
:10119000FFF78CFF04F00F0141F00100FFF786FF1D
:1011A00070BD70B50646002415E004F1B001C8B268
:1011B000FFF77CFF0020FFF779FF1020FFF776FF95
:1011C000002504E03046FFF778FF681CC5B2802D8B
:1011D000F8DB601CC4B2082CE7DB70BD10B5002042
:1011E000FFF7DFFF10BD10B58D20FFF75FFF142064
:1011F000FFF75CFFAF20FFF759FF10BD10B58D2042
:10120000FFF754FF1020FFF751FFAE20FFF74EFF0E
:1012100010BD2DE9F0470646894617469A464FF01D
:10122000000800240025BAF1010F03D0BAF1020F23
:101230005ED125E020E0785D203800F0FF087E2EAA
:1012400004DD002609F1010000F0FF09494630469F
:10125000FFF793FF002409E008EB48015C4A02EB2A
:101260004101085DFFF729FF601CC4B2062CF3DBC7
:10127000B01DC6B2681CC5B2785D0028DBD137E06E
:1012800032E0785D203800F0FF08782E04DD00267B
:1012900009F1010000F0FF0949463046FFF76DFFF4
:1012A000002407E004EB08114A4A505CFFF705FFF1
:1012B000601CC4B2082CF5DB09F10100C1B2304654
:1012C000FFF75BFF002408E004EB08110831414AF6
:1012D000505CFFF7F2FE601CC4B2082CF4DB06F190
:1012E0000800C6B2681CC5B2785D0028C9D100BF2D
:1012F00000BFBDE8F0872DE9F04180460E46174655
:1013000000247D0131464046FFF737FF00BF06E06D
:101310003149485DFFF7D1FE6D1C601CC4B2102C32
:10132000F6DB701CC1B24046FFF727FF002406E041
:101330002949485DFFF7C1FE6D1C601CC4B2102C2A
:10134000F6DBBDE8F0812DE9F05F06460F469046DA
:101350001C46DDF828A04FF0000BE11704EB51719B
:10136000C910A4EBC10131B92046E11704EB51715A
:10137000C1F3C70506E02046E11704EB5171C9101F
:10138000491CCDB23D4614E029463046FFF7F5FE34
:10139000B1460AE059460BF1010B1AF80100FFF7BC
:1013A0008CFE09F1010000F0FF09C145F2DB681C69
:1013B000C5B2A542E8DBBDE8F09F0000000C01408B
:1013C00000540040801A060001000300820007005C
:1013D00060150008881700082800002010B56FF07D
:1013E0000400FFF700F8344800683449B0FBF1F01E
:1013F000334908700846007800EB4001C1EBC0108B
:101400004FF6FF7101EAC0002E49088010BD014669
:101410002B4A12784A434FF0E0235A6100229A6126
:101420001A46126942F001021A6100BF4FF0E02231
:10143000106900F001021AB100F48032002AF5D0E0
:101440004FF0E022126922F001024FF0E0231A610E
:1014500000229A61704701461A4A12884A434FF0A7
:10146000E0235A6100229A611A46126942F0010291
:101470001A6100BF4FF0E022106900F001021AB1BA
:1014800000F48032002AF5D04FF0E022126922F0F9
:1014900001024FF0E0231A6100229A61704730B5D3
:1014A0000446002505E04FF47A70FFF7D4FF681C6E
:1014B000C5B2A542F7D330BD0000002000127A006B
:1014C000A8040020AA040020064C074D06E0E068AE
:1014D00040F0010394E8070098471034AC42F6D37B
:1014E000FEF72AFE781D0008981D000870B58C18BC
:1014F00010F8015B15F0070301D110F8013B2A1128
:1015000006D110F8012B03E010F8016B01F8016B14
:101510005B1EF9D12B0705D40023521E0DD401F810
:10152000013BFAE710F8013BCB1A921C03E013F8D9
:10153000015B01F8015B521EF9D5A142D8D300200E
:1015400070BD02E008C8121F08C1002AFAD1704716
:101550007047002001E001C1121F002AFBD1704733
:101560000000000000000000002F00000000070045
:10157000070000147F147F1400242A7F2A120062BF
:10158000640813230036495522500000050300006B
:1015900000001C224100000041221C000014083EF3
:1015A00008140008083E0808000000A060000008B9
:1015B000080808080000606000000020100804020D
:1015C000003E5149453E0000427F400000426151CB
:1015D0004946002141454B31001814127F10002765
:1015E00045454539003C4A49493000017109050328
:1015F00000364949493600064949291E0000363659
:1016000000000000563600000008142241000014BB
:101610001414141400004122140800020151090698
:1016200000324959513E007C1211127C007F494919
:101630004936003E41414122007F4141221C007F4A
:1016400049494941007F09090901003E4149497A58
:10165000007F0808087F0000417F410000204041D2
:101660003F01007F08142241007F40404040007F3E
:10167000020C027F007F0408107F003E4141413E82
:10168000007F09090906003E4151215E007F0919CA
:1016900029460046494949310001017F0101003FC7
:1016A0004040403F001F2040201F003F4038403F47
:1016B00000631408146300070870080700615149AB
:1016C000454300007F41410000552A552A5500003E
:1016D00041417F00000402010204004040404040BC
:1016E000000001020400002054545478007F484454
:1016F000443800384444442000384444487F00388B
:101700005454541800087E0901020018A4A4A47CB3
:10171000007F080404780000447D4000004080847D
:101720007D00007F102844000000417F4000007CC5
:1017300004180478007C08040478003844444438D1
:1017400000FC242424180018242418FC007C08041D
:10175000040800485454542000043F444020003CF6
:101760004040207C001C2040201C003C4030403C7D
:10177000004428102844001CA0A0A07C004464540D
:101780004C44141414141414000000000000000051
:101790000000000000000000000000F80000000051
:1017A000000000333000000000100C06100C060092
:1017B000000000000000000040C07840C0784000F9
:1017C000043F04043F040400007088FC083000005B
:1017D000001820FF211E0000F008F000E0180000B3
:1017E00000211C031E211E0000F00888700000006C
:1017F0001E2123241927211010160E0000000000BE
:101800000000000000000000000000E018040200DA
:10181000000000071820400000020418E00000004B
:101820000040201807000000404080F08040400049
:101830000202010F01020200000000F0000000009F
:101840000101011F01010100000000000000000073
:1018500080B07000000000000000000000000000E8
:101860000001010101010101000000000000000071
:10187000003030000000000000000000806018040C
:10188000006018060100000000E010080810E000E9
:10189000000F102020100F00001010F800000000B2
:1018A0000020203F202000000070080808887000F9
:1018B0000030282422213000003008888848300079
:1018C0000018202020110E000000C02010F8000099
:1018D00000070424243F240000F808888808080032
:1018E0000019212020110E0000E010888818000047
:1018F000000F112020110E0000380808C838080019
:101900000000003F00000000007088080888700098
:10191000001C222121221C0000E010080810E00019
:101920000000312222110F00000000C0C0000000A2
:1019300000000030300000000000008000000000C7
:1019400000008060000000000000804020100800BF
:101950000001020408102000404040404040400088
:101960000404040404040400000810204080000063
:101970000020100804020100007048080808F00068
:101980000000003036010000C030C828E810E00038
:101990000718272423140B000000C038E0000000C3
:1019A000203C23020227382008F88888887000002D
:1019B000203F202020110E00C03008080808380001
:1019C000071820202010080008F808080810E00078
:1019D000203F202020100F0008F88888E808100019
:1019E000203F20202320180008F88888E8081000ED
:1019F000203F200003000000C03008080838000025
:101A000007182020221E020008F808000008F80825
:101A1000203F210101213F20000808F808080000AC
:101A20000020203F2020000000000808F8080800DF
:101A3000C08080807F00000008F888C02818080057
:101A4000203F20012638200008F808000000000090
:101A5000203F20202020300008F8F800F8F8080087
:101A6000203F003F003F200008F830C00008F80881
:101A7000203F200007183F00E01008080810E00091
:101A80000F10202020100F0008F808080808F000A8
:101A9000203F210101010000E01008080810E000CB
:101AA0000F18242438504F0008F888888888700060
:101AB000203F2000030C3020007088080808380000
:101AC0000038202121221C00180808F808081800F6
:101AD0000000203F2000000008F808000008F80877
:101AE000001F202020201F000878880000C8380828
:101AF000000007380E010000F80800F80008F800A0
:101B0000033C0700073C0300081868808068180839
:101B100020302C03032C30200838C800C8380800B7
:101B20000000203F2000000010080808C838080006
:101B30002038262120201800000000FE02020200AA
:101B40000000007F40404000000C30C0000000005A
:101B5000000000010638C00000020202FE00000082
:101B6000004040407F000000000004020202040028
:101B70000000000000000000000000000000000065
:101B8000808080808080808000020204000000004D
:101B90000000000000000000000080808080000045
:101BA0000019242222223F2008F800808000000033
:101BB000003F112020110E000000008080800000F6
:101BC000000E112020201100000000808088F80005
:101BD000000E112020103F20000080808080000037
:101BE000001F222222221300008080F0888888189B
:101BF0000020203F202000000000808080808000A6
:101C0000006B94949493600008F80080808000003A
:101C1000203F210000203F20008098980000000015
:101C20000020203F20200000000000809898000045
:101C300000C08080807F000008F800008080800065
:101C4000203F24022D302000000808F8000000008A
:101C50000020203F20200000808080808080800045
:101C6000203F20003F20003F8080008080800000D7
:101C7000203F210000203F20000080808080000065
:101C8000001F202020201F00808000808000000096
:101C900080FFA12020110E000000008080808000C5
:101CA000000E112020A0FF808080800080808000B6
:101CB00020203F21200001000000808080808000E3
:101CC0000033242424241900008080E08080000058
:101CD0000000001F202000008080000000808000A5
:101CE000001F202020103F20808080000080808006
:101CF00000010E3008060100808000800080808096
:101D00000F300C030C300F000080800080808000BA
:101D10000020312E0E3120008080800000808080E5
:101D200080818E7018060100008080808080800095
:101D30000021302C2221300000000000807C0202B3
:101D400000000000003F404000000000FF000000D5
:101D500000000000FF0000000002027C8000000084
:101D60000040403F000000000006010102020404A0
:101D70000000000000000000981D00080000002086
:101D8000AC040000EC140008381F0008AC0400206C
:101D900004040000521500081184A24A04680901D5
:101DA000020304060708090C691015020406082C32
:101DB000FE9292031117424AD26A46C0100940C4EB
:101DC00044443F2424241440807F420133C03822FD
:101DD000FF34402018100880814020100C031008A8
:101DE000030C1020408080172424A4FEA3223B2251
:101DF000CC242115080601FF2B01040115FF020266
:101E000002180C101010FF109008888888FF041228
:101E10000820100444827F01808040432C10284613
:101E20008180100A03050911FF118905C312E01210
:101E3000F072F8073D4428FF11AA44700B83013863
:101E4000448292927401831E7C44C7017D019905EE
:101E500039B3219A0102818A010B013669419949FE
:101E6000FA0101A12A4001212A6D01212A6001798C
:101E70001501642ADB010915072ADA01212AD80194
:101E8000212AC0010915072A800101352A06010906
:101E900018071CE66620076A86157A861C2A8601C2
:101EA000180A80808686068686C0C00C0E1C060630
:101EB000D030764D2907013113601C12FE13010248
:101EC0001009C41820029E63B20E1DFF8181FFF22B
:101ED0004440300F12FF180923EAAABFAAEA033FC1
:101EE0000B012DBC808080080115240E0C082A01EE
:101EF000013149041D81808081021901B917061141
:101F00000101090C0E0A14C0012178081E2140406D
:101F100050215E08012A4DFFFFC1C10409232D484D
:101F20001580FCF3EFF3FC80FF80EEEEEEF5FBFF97
:081F30009CBEB6B6883A000021
:0400000508000131BD
:00000001FF
